{
  "_format": "hh-sol-artifact-1",
  "contractName": "TrustWallet",
  "sourceName": "contracts/TrustWallet.sol",
  "abi": [
    {
      "inputs": [
        {
          "internalType": "address",
          "name": "",
          "type": "address"
        }
      ],
      "name": "BankRegistry",
      "outputs": [
        {
          "internalType": "uint256",
          "name": "",
          "type": "uint256"
        }
      ],
      "stateMutability": "view",
      "type": "function"
    },
    {
      "inputs": [
        {
          "internalType": "uint256",
          "name": "_amount",
          "type": "uint256"
        }
      ],
      "name": "DepositAmount",
      "outputs": [],
      "stateMutability": "nonpayable",
      "type": "function"
    },
    {
      "inputs": [
        {
          "internalType": "address",
          "name": "addr",
          "type": "address"
        }
      ],
      "name": "ShowAccountBalance",
      "outputs": [
        {
          "internalType": "uint256",
          "name": "",
          "type": "uint256"
        }
      ],
      "stateMutability": "view",
      "type": "function"
    },
    {
      "inputs": [
        {
          "internalType": "uint256",
          "name": "_amount",
          "type": "uint256"
        }
      ],
      "name": "WithdrawAmount",
      "outputs": [],
      "stateMutability": "nonpayable",
      "type": "function"
    }
  ],
  "bytecode": "0x608060405234801561001057600080fd5b5061067f806100206000396000f3fe608060405234801561001057600080fd5b506004361061004c5760003560e01c80637fef133f1461005157806388dc54f1146100815780638da88a9f146100b1578063a4627c8f146100cd575b600080fd5b61006b600480360381019061006691906103d4565b6100e9565b60405161007891906104a6565b60405180910390f35b61009b600480360381019061009691906103d4565b610101565b6040516100a891906104a6565b60405180910390f35b6100cb60048036038101906100c69190610401565b610149565b005b6100e760048036038101906100e29190610401565b610217565b005b60006020528060005260406000206000915090505481565b60008060008373ffffffffffffffffffffffffffffffffffffffff1673ffffffffffffffffffffffffffffffffffffffff168152602001908152602001600020549050919050565b806000803373ffffffffffffffffffffffffffffffffffffffff1673ffffffffffffffffffffffffffffffffffffffff1681526020019081526020016000205461019391906104dd565b6000803373ffffffffffffffffffffffffffffffffffffffff1673ffffffffffffffffffffffffffffffffffffffff168152602001908152602001600020819055506102146040518060400160405280601681526020017f416d6f756e74202725732720446573706f736974656400000000000000000000815250826102e5565b50565b806000803373ffffffffffffffffffffffffffffffffffffffff1673ffffffffffffffffffffffffffffffffffffffff168152602001908152602001600020546102619190610533565b6000803373ffffffffffffffffffffffffffffffffffffffff1673ffffffffffffffffffffffffffffffffffffffff168152602001908152602001600020819055506102e26040518060400160405280601381526020017f416d6f756e742027257327204465626974656400000000000000000000000000815250826102e5565b50565b61037d82826040516024016102fb929190610476565b6040516020818303038152906040527f9710a9d0000000000000000000000000000000000000000000000000000000007bffffffffffffffffffffffffffffffffffffffffffffffffffffffff19166020820180517bffffffffffffffffffffffffffffffffffffffffffffffffffffffff8381831617835250505050610381565b5050565b60008151905060006a636f6e736f6c652e6c6f679050602083016000808483855afa5050505050565b6000813590506103b98161061b565b92915050565b6000813590506103ce81610632565b92915050565b6000602082840312156103ea576103e9610605565b5b60006103f8848285016103aa565b91505092915050565b60006020828403121561041757610416610605565b5b6000610425848285016103bf565b91505092915050565b6000610439826104c1565b61044381856104cc565b93506104538185602086016105a3565b61045c8161060a565b840191505092915050565b61047081610599565b82525050565b60006040820190508181036000830152610490818561042e565b905061049f6020830184610467565b9392505050565b60006020820190506104bb6000830184610467565b92915050565b600081519050919050565b600082825260208201905092915050565b60006104e882610599565b91506104f383610599565b9250827fffffffffffffffffffffffffffffffffffffffffffffffffffffffffffffffff03821115610528576105276105d6565b5b828201905092915050565b600061053e82610599565b915061054983610599565b92508282101561055c5761055b6105d6565b5b828203905092915050565b600061057282610579565b9050919050565b600073ffffffffffffffffffffffffffffffffffffffff82169050919050565b6000819050919050565b60005b838110156105c15780820151818401526020810190506105a6565b838111156105d0576000848401525b50505050565b7f4e487b7100000000000000000000000000000000000000000000000000000000600052601160045260246000fd5b600080fd5b6000601f19601f8301169050919050565b61062481610567565b811461062f57600080fd5b50565b61063b81610599565b811461064657600080fd5b5056fea2646970667358221220c990fce26ebba05971723a62a5fe42f3cde81ec5f65e7eb8a863b613bd4e7a4f64736f6c63430008070033",
  "linkReferences": {},
  "deployedLinkReferences": {}
}